{
  "address": "0x5e4219b6a6D0e5191b2e6e2A01323c76338849DA",
  "abi": [
    {
      "inputs": [],
      "stateMutability": "nonpayable",
      "type": "constructor"
    },
    {
      "anonymous": false,
      "inputs": [
        {
          "indexed": true,
          "internalType": "address",
          "name": "from",
          "type": "address"
        },
        {
          "indexed": false,
          "internalType": "uint256",
          "name": "timestamp",
          "type": "uint256"
        },
        {
          "indexed": false,
          "internalType": "string",
          "name": "name",
          "type": "string"
        },
        {
          "indexed": false,
          "internalType": "string",
          "name": "message",
          "type": "string"
        }
      ],
      "name": "NewMemo",
      "type": "event"
    },
    {
      "inputs": [
        {
          "internalType": "string",
          "name": "_name",
          "type": "string"
        },
        {
          "internalType": "string",
          "name": "_message",
          "type": "string"
        }
      ],
      "name": "buyCoffee",
      "outputs": [],
      "stateMutability": "payable",
      "type": "function"
    },
    {
      "inputs": [],
      "name": "getMemos",
      "outputs": [
        {
          "components": [
            {
              "internalType": "address",
              "name": "from",
              "type": "address"
            },
            {
              "internalType": "uint256",
              "name": "timestamp",
              "type": "uint256"
            },
            {
              "internalType": "string",
              "name": "name",
              "type": "string"
            },
            {
              "internalType": "string",
              "name": "message",
              "type": "string"
            }
          ],
          "internalType": "struct BuyMeCoffee.Memo[]",
          "name": "",
          "type": "tuple[]"
        }
      ],
      "stateMutability": "view",
      "type": "function"
    },
    {
      "inputs": [],
      "name": "withDrawTips",
      "outputs": [],
      "stateMutability": "nonpayable",
      "type": "function"
    }
  ],
  "transactionHash": "0xeb6053c3efa36d9dbfecdf24bcba7f5e47f5f0bde779fb5914880500c4db3738",
  "args": [],
  "numDeployments": 1,
  "solcInputHash": "59bc311bbb9864b64ba164d9bd64015c",
  "bytecode": "0x60a060405234801561001057600080fd5b503373ffffffffffffffffffffffffffffffffffffffff1660808173ffffffffffffffffffffffffffffffffffffffff1660601b8152505060805160601c610ca3610065600039600060990152610ca36000f3fe6080604052600436106100345760003560e01c80630a5a1e9a14610039578063204206e114610050578063865c51721461006c575b600080fd5b34801561004557600080fd5b5061004e610097565b005b61006a60048036038101906100659190610652565b6101d4565b005b34801561007857600080fd5b5061008161035c565b60405161008e91906108fd565b60405180910390f35b7f000000000000000000000000000000000000000000000000000000000000000073ffffffffffffffffffffffffffffffffffffffff163373ffffffffffffffffffffffffffffffffffffffff1614610125576040517f08c379a000000000000000000000000000000000000000000000000000000000815260040161011c9061093f565b60405180910390fd5b60003373ffffffffffffffffffffffffffffffffffffffff164760405161014b906108e8565b60006040518083038185875af1925050503d8060008114610188576040519150601f19603f3d011682016040523d82523d6000602084013e61018d565b606091505b50509050806101d1576040517f08c379a00000000000000000000000000000000000000000000000000000000081526004016101c89061095f565b60405180910390fd5b50565b60003411610217576040517f08c379a000000000000000000000000000000000000000000000000000000000815260040161020e9061091f565b60405180910390fd5b600060405180608001604052803373ffffffffffffffffffffffffffffffffffffffff16815260200142815260200184815260200183815250908060018154018082558091505060019003906000526020600020906004020160009091909190915060008201518160000160006101000a81548173ffffffffffffffffffffffffffffffffffffffff021916908373ffffffffffffffffffffffffffffffffffffffff1602179055506020820151816001015560408201518160020190805190602001906102e692919061053f565b50606082015181600301908051906020019061030392919061053f565b5050503373ffffffffffffffffffffffffffffffffffffffff167fc56140e05f516509ae28110e0f72e17558a7561630dad2647c3ae87d986e365c4284846040516103509392919061097f565b60405180910390a25050565b60606000805480602002602001604051908101604052809291908181526020016000905b8282101561053657838290600052602060002090600402016040518060800160405290816000820160009054906101000a900473ffffffffffffffffffffffffffffffffffffffff1673ffffffffffffffffffffffffffffffffffffffff1673ffffffffffffffffffffffffffffffffffffffff1681526020016001820154815260200160028201805461041390610b09565b80601f016020809104026020016040519081016040528092919081815260200182805461043f90610b09565b801561048c5780601f106104615761010080835404028352916020019161048c565b820191906000526020600020905b81548152906001019060200180831161046f57829003601f168201915b505050505081526020016003820180546104a590610b09565b80601f01602080910402602001604051908101604052809291908181526020018280546104d190610b09565b801561051e5780601f106104f35761010080835404028352916020019161051e565b820191906000526020600020905b81548152906001019060200180831161050157829003601f168201915b50505050508152505081526020019060010190610380565b50505050905090565b82805461054b90610b09565b90600052602060002090601f01602090048101928261056d57600085556105b4565b82601f1061058657805160ff19168380011785556105b4565b828001600101855582156105b4579182015b828111156105b3578251825591602001919060010190610598565b5b5090506105c191906105c5565b5090565b5b808211156105de5760008160009055506001016105c6565b5090565b60006105f56105f0846109e9565b6109c4565b90508281526020810184848401111561061157610610610bcf565b5b61061c848285610ac7565b509392505050565b600082601f83011261063957610638610bca565b5b81356106498482602086016105e2565b91505092915050565b6000806040838503121561066957610668610bd9565b5b600083013567ffffffffffffffff81111561068757610686610bd4565b5b61069385828601610624565b925050602083013567ffffffffffffffff8111156106b4576106b3610bd4565b5b6106c085828601610624565b9150509250929050565b60006106d68383610860565b905092915050565b6106e781610a8b565b82525050565b60006106f882610a2a565b6107028185610a4d565b93508360208202850161071485610a1a565b8060005b85811015610750578484038952815161073185826106ca565b945061073c83610a40565b925060208a01995050600181019050610718565b50829750879550505050505092915050565b600061076d82610a35565b6107778185610a69565b9350610787818560208601610ad6565b61079081610bde565b840191505092915050565b60006107a682610a35565b6107b08185610a7a565b93506107c0818560208601610ad6565b6107c981610bde565b840191505092915050565b60006107e1601183610a7a565b91506107ec82610bef565b602082019050919050565b6000610804600083610a5e565b915061080f82610c18565b600082019050919050565b6000610827600983610a7a565b915061083282610c1b565b602082019050919050565b600061084a600e83610a7a565b915061085582610c44565b602082019050919050565b600060808301600083015161087860008601826106de565b50602083015161088b60208601826108ca565b50604083015184820360408601526108a38282610762565b915050606083015184820360608601526108bd8282610762565b9150508091505092915050565b6108d381610abd565b82525050565b6108e281610abd565b82525050565b60006108f3826107f7565b9150819050919050565b6000602082019050818103600083015261091781846106ed565b905092915050565b60006020820190508181036000830152610938816107d4565b9050919050565b600060208201905081810360008301526109588161081a565b9050919050565b600060208201905081810360008301526109788161083d565b9050919050565b600060608201905061099460008301866108d9565b81810360208301526109a6818561079b565b905081810360408301526109ba818461079b565b9050949350505050565b60006109ce6109df565b90506109da8282610b3b565b919050565b6000604051905090565b600067ffffffffffffffff821115610a0457610a03610b9b565b5b610a0d82610bde565b9050602081019050919050565b6000819050602082019050919050565b600081519050919050565b600081519050919050565b6000602082019050919050565b600082825260208201905092915050565b600081905092915050565b600082825260208201905092915050565b600082825260208201905092915050565b6000610a9682610a9d565b9050919050565b600073ffffffffffffffffffffffffffffffffffffffff82169050919050565b6000819050919050565b82818337600083830152505050565b60005b83811015610af4578082015181840152602081019050610ad9565b83811115610b03576000848401525b50505050565b60006002820490506001821680610b2157607f821691505b60208210811415610b3557610b34610b6c565b5b50919050565b610b4482610bde565b810181811067ffffffffffffffff82111715610b6357610b62610b9b565b5b80604052505050565b7f4e487b7100000000000000000000000000000000000000000000000000000000600052602260045260246000fd5b7f4e487b7100000000000000000000000000000000000000000000000000000000600052604160045260246000fd5b600080fd5b600080fd5b600080fd5b600080fd5b6000601f19601f8301169050919050565b7f4e6f7420656e6f756768204d6f6e6e6579000000000000000000000000000000600082015250565b50565b7f4e4f545f4f574e45520000000000000000000000000000000000000000000000600082015250565b7f77697468726177206661696c656400000000000000000000000000000000000060008201525056fea2646970667358221220b5565533a29ec4c02461ae91ac3902e524c9d3e2a80df03de287f04a5df4e0ff64736f6c63430008070033",
  "devdoc": {
    "kind": "dev",
    "methods": {},
    "version": 1
  },
  "userdoc": {
    "kind": "user",
    "methods": {},
    "version": 1
  },
  "storageLayout": {
    "storage": [
      {
        "astId": 24,
        "contract": "contracts/BuyMeCoffee.sol:BuyMeCoffee",
        "label": "memos",
        "offset": 0,
        "slot": "0",
        "type": "t_array(t_struct(Memo)20_storage)dyn_storage"
      }
    ],
    "types": {
      "t_address": {
        "encoding": "inplace",
        "label": "address",
        "numberOfBytes": "20"
      },
      "t_array(t_struct(Memo)20_storage)dyn_storage": {
        "base": "t_struct(Memo)20_storage",
        "encoding": "dynamic_array",
        "label": "struct BuyMeCoffee.Memo[]",
        "numberOfBytes": "32"
      },
      "t_string_storage": {
        "encoding": "bytes",
        "label": "string",
        "numberOfBytes": "32"
      },
      "t_struct(Memo)20_storage": {
        "encoding": "inplace",
        "label": "struct BuyMeCoffee.Memo",
        "members": [
          {
            "astId": 13,
            "contract": "contracts/BuyMeCoffee.sol:BuyMeCoffee",
            "label": "from",
            "offset": 0,
            "slot": "0",
            "type": "t_address"
          },
          {
            "astId": 15,
            "contract": "contracts/BuyMeCoffee.sol:BuyMeCoffee",
            "label": "timestamp",
            "offset": 0,
            "slot": "1",
            "type": "t_uint256"
          },
          {
            "astId": 17,
            "contract": "contracts/BuyMeCoffee.sol:BuyMeCoffee",
            "label": "name",
            "offset": 0,
            "slot": "2",
            "type": "t_string_storage"
          },
          {
            "astId": 19,
            "contract": "contracts/BuyMeCoffee.sol:BuyMeCoffee",
            "label": "message",
            "offset": 0,
            "slot": "3",
            "type": "t_string_storage"
          }
        ],
        "numberOfBytes": "128"
      },
      "t_uint256": {
        "encoding": "inplace",
        "label": "uint256",
        "numberOfBytes": "32"
      }
    }
  }
}